:020000040000fa
:08000000c01404000000000020
:020000040000fa
:1000080004140000081400000c1400001014000070
:1000180014140000bc140000bc140000bc14000040
:10002800181400001c140000201400002414000000
:10003800bc140000281400002c1400003014000028
:1000480034140000381400003c1400004014000070
:100058004414000048140000bc140000bc14000044
:100068004c140000501400005414000058140000f0
:100078005c140000bc140000bc140000bc14000098
:10008800bc14000060140000641400006814000030
:100098006c14000070140000741400007814000040
:1000a8007c14000080140000bc140000bc14000084
:1000b800bc14000084140000881400008c14000094
:1000c800bc14000090140000bc140000bc14000014
:1000d800bc14000094140000bc140000bc14000000
:1000e800bc140000981400009c140000bc1400000c
:1000f800bc140000bc140000bc140000bc140000b8
:10010800bc140000bc140000bc140000bc140000a7
:10011800bc140000bc140000a0140000bc140000b3
:10012800bc140000a4140000a8140000ac140000c3
:10013800bc140000bc140000bc140000bc14000077
:10014800b0140000bc140000bc140000bc14000073
:10015800bc140000b4140000bc140000bc1400005f
:10016800bc140000bc140000bc140000bc14000047
:10017800bc140000bc140000b8140000bc1400003b
:10018800bc140000bc140000bc140000bc14000027
:10019800bc140000bc140000bc140000bc14000017
:1001a800bc140000bc140000bc140000bc14000007
:1001b800bc140000bc140000bc140000bc140000f7
:1001c800bc140000bc140000bc140000bc140000e7
:1001d800bc140000bc140000bc140000bc140000d7
:1001e800bc140000bc140000bc140000bc140000c7
:0801f800bc140000bc1400005f
:020000040000fa
:10280000c014040000000000e226040000000000e4
:10281000b226040000000000b826040000000000fa
:10282000be26040000000000c426040000000000d2
:10283000e226040000000000e22604000000000080
:10284000e226040000000000e22604000000000070
:10285000e226040000000000e22604000000000060
:10286000e226040000000000e22604000000000050
:10287000e226040000000000e22604000000000040
:10288000e226040000000000e22604000000000030
:10289000e226040000000000e22604000000000020
:1028a000e226040000000000e22604000000000010
:1028b0007626040000000000e2260400000000006c
:1028c000e226040000000000e226040000000000f0
:1028d000e226040000000000e226040000000000e0
:1028e000e226040000000000e226040000000000d0
:1028f000e226040000000000e226040000000000c0
:10290000e226040000000000e226040000000000af
:10291000e226040000000000e2260400000000009f
:10292000e226040000000000e2260400000000008f
:10293000e226040000000000e2260400000000007f
:10294000e226040000000000e2260400000000006f
:10295000e226040000000000e2260400000000005f
:10296000e226040000000000e2260400000000004f
:10297000e226040000000000e2260400000000003f
:020000040000fa
:102980008f3721000e7f22000e018800000000001a
:1029900000012000200288000c000700e0d2210086
:1029a0000100200011000700000020000000e000ee
:1029b000020032000000020000000000d21c0200f1
:1029c000000000000040da000000fe004440a900c2
:1029d000000020000000e0000300320000002000a2
:1029e000a00188004440a800000006009101880072
:1029f000800078000000eb0015003700e280400006
:102a000032a0b4009101ba00e280400032a0b400cc
:102a10009102ba00e280400032a0b4000002eb0054
:102a2000472bde00f507b200602ce10004003a00fd
:102a30000059eb008301e900fdff3e000400370070
:102a40006128e100010032000082eb000400070071
:102a50001101ba000200e000e8ff3a0000000600a1
:102a60003159ba008301e9000c0032002159ba0043
:102a70008301e900080032000400e00003003a008e
:102a8000e280400032a0b400f5ff370011d9ba004f
:102a90008301e900faff3a008100e800e18040008c
:082aa00032a0b40000000600a2
:020000040000fa
:102aa8000000fa00842a210014427800e14f520005
:102ab80010003a00a49b80000402e800969b800066
:102ac8006a22b90004027800060242008402420029
:102ad800a42a21000482420014027800e00f520068
:102ae8003f003a00a49b80000402e800a49b8800f1
:102af8003b003700842a210014427800e44f52003a
:102b080010003a00a49b80000402e900969b800014
:102b18006a22b900040278000602420084024200d8
:102b2800a42a21000482420014027800e00f520017
:102b38002b003a00a49b80000402e900a49b8800b3
:102b480027003700842a210014427800e24f5200ff
:102b580010003a00a49b8000959b80000503e800c4
:102b68006a22b90004027800060242008402420088
:102b7800a42a21000482420014027800e00f5200c7
:102b880017003a00949b80000402e800949b880098
:102b980013003700842a210014427800e84f5200bd
:102ba8000f003a00a49b8000959b80000503e90074
:102bb8006a22b90004027800060242008402420038
:102bc800a42a21000482420014027800e00f520077
:102bd80003003a00949b80000402e900949b88005b
:102be8000080fa00000006000000fa00842a210094
:102bf80014427800e04f52000a003200842a210073
:102c080014427800e44f520006003e00842a210056
:102c1800144278000442420004407800a8f2b70049
:102c28000300370014c0b30004407800a8f2b700ce
:102c38000080fa00000006000000fa00842a210043
:102c480014427800e14f52000c003600842a21001b
:102c580014427800e84f520008003e00842a210000
:102c6800144278000482fb000402d1000442780078
:102c780004407800a8f2b7000300370084c0b3000e
:102c880004407800a8f2b7000080fa0000000600af
:102c98000600fa00200798000002eb00040f7800f5
:102ca8000e003700000000000002eb001407980037
:102cb8000500370000000000000000001e02900020
:102cc8000402e800140798009e0290004447200080
:102cd800848f5200f7ff36001e0fe8002e02900086
:102ce8009e027800848f5200eeff36000080fa00c2
:102cf800000006001800fa0070079800010f9800fd
:102d0800120f9800230f9800340f98009e0a900025
:102d18007e0290000482520024079800ae0a9000b8
:102d28000e0a90000482520034079800ae02900008
:102d38003e029000110009008402d80000027800c9
:102d4800440798000002eb00040f780026003700c3
:102d58009e0278000e0a90000482420054079800f0
:102d68009e0278004e02900004aab900040278007e
:102d7800840278007e0290000482420014079800c2
:102d88009e02e8004e02900004aab90004027800ee
:102d9800840278007e029000048242006407980052
:102da8003e0a9000e10f52000a003a00de0090004f
:102db8001e009000600607000a003700de00900041
:102dc8001e0090005c0607001e0290000402e80046
:102dd800140798009e0290006e029000848f5200a3
:102de800f6ff35001e0fe8003e0290009e027800b4
:102df800848f5200d6ff35000080fa0000000600dc
:102e08000c00fa0020079800310798004207980044
:102e1800530798000002eb00040f780015003700f4
:102e28000002eb00140798000d0037009e0278009e
:102e38003e02900004824200840278001e03900043
:102e48002e029000040243008500780004007800f8
:102e5800390607001e0290000402e80014079800d3
:102e68009e0290004e029000848f5200efff3900be
:102e78001e0fe8009e0278005e029000848f5200c8
:102e8800e7ff39000080fa00000006000000fa00a1
:102e980063012000020820008000eb000000eb0026
:102ea800d7ff070013002000220220006101200044
:102eb8000000eb00d2ff07001300200012022000e0
:102ec800710120000000eb00cdff07002300200067
:102ed80002022000810120000000eb00c8ff07006b
:102ee8009101200010022000130607003300200083
:102ef80022022000a10120000000eb00c0ff070013
:102f08001300200012022000d10120000000eb0075
:102f1800bbff07001300200022022000e10120006f
:102f28000000eb00b6ff070083002000120220001b
:102f3800f10120000000eb00b1ff070013002000a2
:102f480022022000710220000000eb00acff070005
:102f58001300200032022000810220000000eb0054
:102f6800a7ff070013002000520220009102200052
:102f78000000eb00a2ff070073002000720220008f
:102f8800a10220000000eb009dff070013002000b5
:102f980062022000110320000000eb0098ff0700e8
:102fa8001300200052022000210320000000eb0043
:102fb80093ff070013002000320220003103200095
:102fc8000000eb008eff0700130020002202200003
:102fd800410320000000eb0089ff070013002000d8
:102fe80012022000510320000000eb0084ff0700bc
:102ff8001300200002022000610320000000eb0003
:103008007fff070023002000f20120007103200049
:103018000000eb007aff070073002000e2012000a7
:10302800910320000000eb0075ff0700130020004b
:1030380072032000610120004002200070ff070099
:1030480013002000520320007101200050022000cc
:103058006bff0700130020003203200081012000cd
:103068006002200066ff0700130020001203200002
:10307800910120007002200061ff0700130020006a
:10308800f2022000a1012000800220005cff07005e
:1030980013002000d2022000b1012000900220007d
:1030a80057ff070013002000b2022000c1012000d2
:1030b800a002200052ff07002300200092022000f7
:1030c800d1012000b00220004dff070013002000ae
:1030d80072022000f1012000c002200048ff070012
:1030e800130020007202200001022000d0022000fc
:1030f80043ff0700130020005202200011022000a5
:10310800e00220003eff070013002000b20020006c
:1031180021022000f002200039ff070013002000e0
:103128007200200031022000f002200034ff070066
:10313800130020005200200041022000000320005c
:103148002fff07002300200042002000510220002a
:10315800100320002aff070013002000220020008f
:10316800710220002003200025ff07001300200023
:1031780032002000810220001003200020ff0700f9
:10318800130020007200200091022000d0022000cd
:103198001bff07001300200092002000a10220005e
:1031a800a002200016ff070013002000b200200034
:1031b800b10220007002200011ff07001300200058
:1031c80082002000c1022000700220000cff0700ce
:1031d8001300200052002000d102200070022000bd
:1031e80007ff07001300200032002000e102200042
:1031f8007002200002ff0700f10220007002200088
:103208004d05070013002000e200200021022000e5
:1032180050042000fafe070013002000920020004e
:1032280031022000a0042000f5fe07001300200052
:10323800a200200041022000a0042000f0fe0700a8
:10324800230020004200200051022000a00420009a
:10325800ebfe07001300200032002000710220005e
:10326800a0042000e6fe0700130020004200200012
:1032780051022000f0042000e1fe070013002000a6
:103288005200200061022000f0042000dcfe07004c
:10329800130020006200200071022000f0042000ca
:1032a800d7fe070013002000b20020008102200092
:1032b800b0042000d2fe070013002000c200200046
:1032c80091022000b0042000cdfe0700130020006a
:1032d800a2002000a1022000c0042000c8fe0700b0
:1032e800a10220008005200013050700130020001c
:1032f800d2002000b1022000d0042000c0fe070048
:103308001300200092002000c102200000052000c8
:10331800bbfe07001300200072002000d10220002d
:1033280030052000b6fe07001300200062002000d0
:10333800e102200050052000b1fe07001300200024
:1033480052002000f102200070052000acfe0700aa
:1033580013002000620020000103200080052000e7
:10336800a7fe0700130020006200200011032000c0
:1033780090052000a2fe0700130020005200200044
:1033880021032000a00520009dfe07001300200057
:103398003200200031032000c005200098fe0700fd
:1033a800130020002200200041032000d005200047
:1033b80093fe070013002000320220006101200064
:1033c800d00520008efe07001300200022022000f6
:1033d80071012000e005200089fe0700330020006d
:1033e8001202200081012000f005200084fe070061
:1033f8008300200002022000b10120000006200006
:103408007ffe070063002000f20120003102200047
:10341800100620007afe0700630020000202200048
:10342800910220000006200075fe070073002000ae
:1034380012022000f1022000f005200070fe0700b3
:10344800a3002000020220006103200000062000e3
:103458006bfe07001300200092002000a10220004c
:10346800c003200066fe070013002000e2002000d1
:10347800b10220009003200061fe07001300200025
:1034880002012000c1022000800320005cfe07002a
:103498002300200032012000d10220007003200008
:1034a80057fe07002300200022012000f10220001f
:1034b8008003200052fe07001300200012012000a4
:1034c80011032000800320004dfe07001300200098
:1034d8004200200021032000d002200048fe0700ff
:1034e80013002000f2002000210320009003200098
:1034f80043fe0700130020004200200021032000a3
:10350800000520003efe07001300200042002000b6
:1035180031032000a002200039fe0700130020001c
:1035280042002000310320000003200034fe070081
:1035380013002000d200200031032000a003200047
:103548002ffe070013002000a200200031032000f6
:10355800d00420002afe07001300200042002000ab
:10356800410320009002200025fe070013002000e0
:103578006200200041032000f002200020fe070026
:1035880013002000d200200041032000a0032000e7
:103598001bfe070013002000d2002000410320007a
:1035a800c004200016fe070013002000620020005f
:1035b800510320007002200011fe070013002000b4
:1035c8008200200051032000e00220000cfe0700ca
:1035d80013002000c200200051032000b003200087
:1035e80007fe070013002000f2002000510320000e
:1035f800b004200002fe07006103200070022000d2
:103608004d04070013002000220020006103200061
:10361800a0022000fafd07001300200092002000fd
:1036280061032000e0022000f5fd070013002000e0
:10363800b200200061032000b0032000f0fd070065
:10364800130020002200200061032000a0042000b5
:10365800ebfd070013002000a200200061032000fa
:10366800d0042000e6fd070061032000900520003b
:1036780031040700130020002200200071032000fd
:10368800a0022000defd070013002000b200200089
:1036980071032000d0022000d9fd0700130020008c
:1036a800b200200071032000b0032000d4fd070001
:1036b8001300200022002000710320009004200045
:1036c800cffd0700130020007200200071032000c6
:1036d800d0042000cafd07001300200022002000ab
:1036e8007103200050052000c5fd070013002000cd
:1036f8002200200081032000a0022000c0fd070056
:10370800130020007200200081032000e002200046
:10371800bbfd0700130020002200200081032000c9
:1037280060032000b6fd070013002000b20020004f
:1037380081032000b0032000b1fd07001300200022
:10374800220020008103200090042000acfd070027
:10375800130020007200200081032000d004200004
:10376800a7fd07001300200022002000810320008d
:1037780050052000a2fd07001300200012002000c1
:1037880091032000b00220009dfd070013002000d7
:103798006200200091032000e002200098fd07004d
:1037a8001300200042002000910320005003200055
:1037b80093fd070013002000b200200091032000b1
:1037c800b00320008efd0700130020003200200007
:1037d800910320009004200089fd070013002000b9
:1037e8007200200091032000d004200084fd07000f
:1037f8001300200022002000910320005005200023
:103808007ffd07001300200022002000a1032000f4
:10381800b00220007afd070013002000620020009b
:10382800a1032000e002200075fd0700a10320008d
:1038380050032000c00307001300200022002000ce
:10384800a1032000700320006dfd07001300200075
:10385800c2002000a1032000b003200068fd07007b
:103868001300200042002000a10320008004200053
:1038780063fd07001300200052002000a103200070
:10388800e00420005efd0700130020002200200055
:10389800a10320004005200059fd0700b1032000c6
:1038a800c0022000a40307001300200042002000eb
:1038b800b1032000f002200051fd07001300200092
:1038c80032002000b1032000600320004cfd0700f7
:1038d80013002000c2002000b1032000b003200024
:1038e80047fd07001300200032002000b10320002c
:1038f8008004200042fd0700130020004200200041
:10390800b1032000e00420003dfd0700b1032000c2
:103918004005200088030700130020002200200033
:10392800c1032000d002200035fd0700130020004d
:1039380072002000c10320003003200030fd070082
:103948001300200032012000c1032000b003200032
:103958002bfd0700c10320000005200076030700a7
:10396800c103200030052000730307001300200066
:1039780052022000d1032000e002200020fd0700b1
:103988002300200032012000e10320007003200002
:103998001bfd07000080fa00000006000000fa0086
:1039a8000805070091c1b30010c8b300b5020700ad
:1039b8000603070040030700cde2a9006416800053
:1039c8004f22de00044278000482fb00610262009c
:1039d8004e22dd0066168000f5ff2b00850263008d
:1039e8000482720064168800b49b8000e00f5200c5
:1039f80001003a0025fd0700b49b8000e10f52004a
:103a080001003a002c030700b49b8000e20f52002b
:103a180001003a0028030700b49b8000e30f52001e
:103a280001003a0024030700b49b8000e40f520011
:103a380001003a002003070002082000810020004e
:103a480000c0200087030700a00f200090fc07009b
:043a5800e5ff37004f
:020000040000fa
:103a5c0000100000a802000002000000000000009e
:103a6c0000000000000006005f5f06000000000080
:103a7c000707000007070000147f7f00147f7f00fa
:103a8c0014242e006b6b3a001200460066301800ae
:103a9c000c666200307a4f005d377a0048040700ec
:103aac0003000000000000001c3e63004100000009
:103abc00004163003e1c000000082a003e1c1c0054
:103acc003e2a0800083e3e00080800000080e00086
:103adc00600000000008080008080800080000004a
:103aec000060600000000000603018000c0603004d
:103afc00013e7f0071594d007f3e4000427f7f00a8
:103b0c004040000062735900496f66000022630058
:103b1c0049497f00360018001c1653007f7f500067
:103b2c0027674500457d3900003c7e004b497900f4
:103b3c0030000300037179000f070000367f490045
:103b4c00497f360000064f0049693f001e00000007
:103b5c0000666600000000000080e60066000000c1
:103b6c0000081c00366341000000240024242400bb
:103b7c002424000000416300361c080000020300ee
:103b8c0051590f0006003e007f415d005d1f1e0075
:103b9c007c7e1300137e7c0000417f007f4949002e
:103bac007f361c003e63410041632200417f7f0051
:103bbc0041633e001c417f007f495d004163410031
:103bcc007f7f49001d0103001c3e630041517300bf
:103bdc00727f7f0008087f007f000000417f7f001c
:103bec004100000030704000417f3f0001417f00e8
:103bfc007f081c00776341007f7f410040607000ac
:103c0c007f7f0e001c0e7f007f7f7f00060c18004c
:103c1c007f7f1c003e634100633e1c00417f7f00a0
:103c2c0049090f00061e3f0021717f005e00410014
:103c3c007f7f0900197f6600266f4d005973320093
:103c4c00000341007f7f410003007f007f40400064
:103c5c007f7f00001f3f6000603f1f00007f7f00e0
:103c6c00301830007f7f4300673c18003c674300ee
:103c7c00074f7800784f07000047630071594d00db
:103c8c00677300007f7f41004100000001030600c4
:103c9c000c18300060004100417f7f0000000800dc
:103cac000c060300060c08008080800080808000d9
:103cbc00800000000307040000002000745454002e
:103ccc003c784000417f3f004848780030387c0009
:103cdc0044446c0028003000784849003f7f400085
:103cec00387c5400545c180000487e007f49030067
:103cfc0002003800bca4a400fc780000417f7f00c7
:103d0c0008047c00780044007d7d400000006000c9
:103d1c00e0808000fd7d0000417f7f0010386c004a
:103d2c00440041007f7f4000000078007c1c38007c
:103d3c001c7c78007c7c0400047c780000387c00bf
:103d4c0044447c0038000000fcfca400243c180017
:103d5c00183c2400a4f8fc0084447c00784c04003b
:103d6c001c1848005c5454007424000000043e00ed
:103d7c007f442400003c7c0040403c007c401c0004
:103d8c003c6060003c1c00003c7c700038707c0087
:103d9c003c446c00381038006c443c00bca0a000c3
:103dac00fc7c00004c6474005c4c6400000808004f
:103dbc003e774100410000000000770077000000d2
:103dcc00414177003e080800000203000103020095
:103ddc000301ff00818181008181ff000e9f910012
:103dec00b1fb4a00000000000008000000040000c5
:103dfc0002000000000000000000000000000000b5
:103e0c0000000000000000000000000000000000a6
:103e1c000000000000000000000000000000000096
:103e2c000000000000000000000000000000000086
:103e3c000000000000000000000000000000000076
:103e4c000000000000000000000000000000000066
:103e5c000000000000000000000000000000000056
:103e6c000000000000000000000000000000000046
:103e7c000000000000000000000000000000000036
:103e8c000000000000000000000000000000000026
:103e9c000000000000000000000000000000000016
:103eac000000000000000000e000000020202000c6
:103ebc00e020200020000000000000000000800036
:103ecc008080800000000000800080008080000066
:103edc000000a000000000000080800080000000b6
:103eec0000000000000000000000000000000000c6
:103efc0000000000000000000000000000000000b6
:103f0c0000000000000000000000000000000000a5
:103f1c000000000000000000000000000000000095
:103f2c000000000000000000000000000000000085
:103f3c000000000000000000000000000000000075
:103f4c000000000000000000000000000000000065
:103f5c0000003f000000000000003f0000000000d7
:103f6c0000040400040000001f20200020201f007b
:103f7c000000ff0011202000201f0000003f000067
:103f8c0000001900242414003f0000000000000071
:103f9c000000000000000000000000000000000015
:103fac000000000000000000000000000000000005
:103fbc0000000000000000000000000000000000f5
:103fcc0000000000000000000000000000000000e5
:103fdc0000000000000000000000000000000000d5
:103fec0000000000000000000000000000000000c5
:103ffc0000000000000000000000000000000000b5
:10400c0000000000000000000000000000000000a4
:10401c000000000000000000000000000001000093
:10402c000000000000000000000000000000000084
:10403c000000000000000000000000000000000074
:10404c000000000000000000000000000000000064
:10405c000000000000000000000000000000000054
:10434c00000000000000000000000000000c000055
:10435c000004000000000000a8120000d0000000c3
:10436c000200000001000100000300000100010038
:10437c00000100000100010000010000010001002b
:10438c00000100000000010000000000010000001e
:10439c00000000000000010000010000010000000e
:1043ac000000000000000000000000000100000000
:1043bc0000000000010001000001000000000000ee
:1043cc0000010000010001000001000000000100dc
:1043dc0000010000000001000000000000000000cf
:1043ec0000000000000001000001000001000000be
:1043fc0000000000010001000000000001000000ae
:10440c00000100000100010000010000000000009c
:10441c00000000000100000000000000000001008e
:10442c00000100000100010000000000010001007b
:10443c00000000000100010000010000010002006a
:10444c000000000000000000000000000000000060
:10445c00000000000100010000010000010001004b
:10446c00000100000100010000010000010001003a
:10447c00000100000100000000000000000000002e
:020000040000fa
:10448c000200fa00004f780011479800cda2a90055
:10449c00cd22a800cdc2a90000c4b300360007008d
:1044ac0010cab3003400070000ccb3003200070080
:1044bc0060cab3003000070020cab3002e0007000a
:1044cc00f0c2b3002c00070080cfb3002a00070015
:1044dc000040eb002800070070c2b3002600070064
:1044ec001e42780004407800230007001e42900012
:1044fc000440780020000700c0cab3001e0007006b
:10450c000040eb001c000700f0cab3001a000700c3
:10451c000080fa00000006000400fa002047980012
:10452c000042eb00044f78000042eb00044f78008f
:10453c000c0037002e429000e04f520002003d006c
:10454c00cde2a80001003700cde2a900cdc2a80041
:10455c002e4290000442420024479800cdc2a9008c
:10456c001e4fe8001e427800e74f5200f1ff340066
:10457c000080fa00000006000200fa00004f7800ec
:10458c00cdc2a900cda2a900cd22a9001e40780061
:10459c00e1ff0700cd22a8000080fa000000060011
:1045ac000200fa00004f7800cdc2a900cda2a800ed
:1045bc00cd22a9001e407800d7ff0700cd22a8000d
:1045cc000080fa00000006000400fa006416800067
:1045dc004e22de006142620024479800641680007f
:1045ec004f22de00044278003447980004cbb3001d
:1045fc00044f78000042eb00144798001e407800ee
:10460c00ad0107000040eb009b01070010003700d4
:10461c000042eb0014479800050037000040eb0007
:10462c00dfff07001e4290000442e8001447980088
:10463c001e429000e04f5200f8ff3d001e4fe80074
:10464c001e407800ccff07000040eb008a010700f9
:10465c0074cbb3009e42780084cf5200ecff36003e
:10466c002e429000614262000482fb0061026200f3
:10467c004e22dd0066168000f5ff2b0085026300dc
:10468c0004827200641688003e429000614262000f
:10469c000482fb004f22dd0066168000f5ff270028
:1046ac008502630004827200641688000080fa00a0
:1046bc00000006000400fa000002eb00040f780072
:1046cc000002eb00140798000002eb00040f7800c6
:1046dc00130037000002eb00140798000b003700a2
:1046ec001e027800c722dd001e0290008482420068
:1046fc0004c02000848242000042eb00844a78000f
:10470c001e0290000402e800140798009e0290001c
:10471c00f4072000848f5200f1ff34001e0fe800d4
:10472c001e027800e70f5200eaff34000080fa0006
:10473c00000006000800fa002007980031079800d6
:10474c00be02900084002000110009008402d800f1
:10475c0000027800040f7800be0290008400200054
:10476c00110009008402d800010278001407980097
:10477c001e027800c722dd002e02900084824200c7
:10478c0004c0200004824200144278008442780065
:10479c00160020001e0290000432dd000442780056
:1047ac0004c272009e027800472bdd00ae0290001e
:1047bc000503430005c0200085024300844a7800ad
:1047cc000080fa00000006000800fa00200798009c
:1047dc0031079800be0290008400200011000900ef
:1047ec008402d80000027800040f7800be0290000a
:1047fc0084002000110009008402d8000102780016
:10480c00140798001e027800c722dd002e029000cb
:10481c008482420004c020000482420014427800ca
:10482c0084427800160020001e0290000432dd0045
:10483c000442780004c2ea0004c262009e027800be
:10484c00472bdd00ae0290000503430005c020009d
:10485c0085024300844a78000080fa0000000600bc
:10486c000e00fa0040079800510798006207980064
:10487c000002eb00040f78000002eb001407980014
:10488c0004cbb30044479800641680004e22de002f
:10489c006142620054479800641680004f22de008b
:1048ac0004427800644798004e40900032ff0700a5
:1048bc000040eb00f00007000002eb00040f780052
:1048cc001b0037000002eb00140798000c003700a7
:1048dc001e0278004722dd00ce0290008482420046
:1048ec001e029000048242001442780004407800ba
:1048fc002bff07001e0290000402e800140798002a
:10490c009e0290006e029000848f5200f0ff3500e2
:10491c004e4290000442e800444798004e409000fc
:10492c0015ff07000040eb00d30007001e0fe80046
:10493c005e0290009e027800848f5200e1ff3500e9
:10494c005e429000614262000482fb0061026200e0
:10495c004e22dd0066168000f5ff2b0085026300f9
:10496c0004827200641688006e42900061426200fc
:10497c000482fb004f22dd0066168000f5ff270045
:10498c008502630004827200641688000080fa00bd
:10499c00000006000c00fa00400798005107980030
:1049ac000002eb00040f78000002eb0014079800e3
:1049bc000042eb004447980004cbb30054479800e6
:1049cc00641680004e22de0061426200644798004b
:1049dc00641680004f22de00044278007447980071
:1049ec005e409000e4fe07000040eb00a2000700d0
:1049fc000002eb00040f78001a0037000042eb00b5
:104a0c00444798000c0037001e029000ce02900024
:104a1c00048242001442780004407800e0fe070053
:104a2c001e0290000402e800140798004e42900009
:104a3c000442e800444798004e429000e04f520078
:104a4c00f1ff3d005e4290000442e800544798009c
:104a5c005e409000c8fe07000040eb008600070097
:104a6c001e0fe8005e0290009e027800848f5200b8
:104a7c00e2ff35006e429000614262000482fb004e
:104a8c00610262004e22dd0066168000f5ff2b00ed
:104a9c008502630004827200641688007e429000d6
:104aac00614262000482fb004f22dd00661680002a
:104abc00f5ff2700850263000482720064168800eb
:104acc000080fa00000006000c00fa003007980085
:104adc00014f9800124f9800234f98000002eb00f2
:104aec00040f78000002eb00140798006416800095
:104afc004e22de006142620044479800641680003a
:104b0c004f22de0004427800544798002e4a900051
:104b1c000482fb000402b100140798001e029000ee
:104b2c006722b90004027800140798000e48900020
:104b3c00610007001e4890004f0007000002eb00c8
:104b4c00040f78000a0037001e029000be0290008d
:104b5c0004824200144278000440780090fe070062
:104b6c001e0290000402e800140798001e0fe800d3
:104b7c001e027800e60f5200f3ff34004e42900004
:104b8c00614262000482fb00610262004e22dd0081
:104b9c0066168000f5ff2b0085026300048272000c
:104bac00641688005e429000614262000482fb0041
:104bbc004f22dd0066168000f5ff2700850263009a
:104bcc0004827200641688000080fa00000006005f
:104bdc000a00fa0020079800614798007247980075
:104bec00430798000002eb00040f78000002eb0072
:104bfc0014079800180037007e4290000482fb00d6
:104c0c00e7024200e4072000848f520005003400c4
:104c1c006e4290000442e800644798000042eb00aa
:104c2c00744798001e027800ce0290000482420065
:104c3c00144278001e0fe800844178007e419000f9
:104c4c00ee4090002e0090009fff07007e429000e7
:104c5c0067424200744798001e027800ce02900012
:104c6c000482420014427800e04f5200e2ff3a0006
:104c7c000080fa00000006000200fa00004f7800e5
:104c8c001e74a1009e4278000582fb004422de00c7
:104c9c00044278000444a0000440780036fe07006b
:104cac009e4278006fc262000440780032fe07001a
:104cbc000080fa00000006000200fa00004f7800a5
:104ccc001e427800674f620004cbb3001e42720094
:104cdc000440780028fe07000080fa00000006005f
:020000040000fa
:104cec00841f78000000fa008660a900141680006a
:104cfc0061026200e00f520002003a001400200032
:104d0c00b49b88001416800062026200e00f52000f
:104d1c0002003a0024002000b49b88001416800086
:104d2c0064026200e00f520002003a0034002000de
:104d3c00b49b88001416800068026200e00f5200d9
:104d4c0002003a0044002000b49b88000080fa0066
:104d5c004f027800004006000000fa008020a900f5
:104d6c00ffff37000000fa008060a900ffff37004a
:104d7c000000fa008040a900ffff37000000fa0095
:104d8c008080a900ffff37000000fa008020a900f6
:104d9c00ffff37000000fa008060a900ffff37001a
:104dac000000fa008040a900ffff37000000fa0065
:104dbc008080a900ffff37000000fa00ffff3700da
:020000040000fa
:104dcc000000fa000082eb00641988000002eb007e
:104ddc00441688000002eb00641688000002eb0009
:104dec00040388000002eb00140388006040a80054
:104dfc006060a80063a0a80063c0a800ad80a800f4
:104e0c00ada0a900adc0a9008660a9009660a8005d
:104e1c000080fa00000006000000fa000080fa0092
:044e2c00000006007c
:00000001FF
